{"abi":[{"type":"function","name":"createEscrow","inputs":[{"name":"_seller","type":"address","internalType":"address"},{"name":"_arbitrator","type":"address","internalType":"address"},{"name":"_deadline","type":"uint256","internalType":"uint256"}],"outputs":[],"stateMutability":"payable"},{"type":"function","name":"dispute","inputs":[{"name":"id","type":"uint256","internalType":"uint256"}],"outputs":[],"stateMutability":"nonpayable"},{"type":"function","name":"escrowCount","inputs":[],"outputs":[{"name":"","type":"uint256","internalType":"uint256"}],"stateMutability":"view"},{"type":"function","name":"escrows","inputs":[{"name":"","type":"uint256","internalType":"uint256"}],"outputs":[{"name":"id","type":"uint256","internalType":"uint256"},{"name":"buyer","type":"address","internalType":"address"},{"name":"seller","type":"address","internalType":"address"},{"name":"arbitrator","type":"address","internalType":"address"},{"name":"amount","type":"uint256","internalType":"uint256"},{"name":"deadline","type":"uint256","internalType":"uint256"},{"name":"currentState","type":"uint8","internalType":"enum Escrow.State"}],"stateMutability":"view"},{"type":"function","name":"refund","inputs":[{"name":"id","type":"uint256","internalType":"uint256"}],"outputs":[],"stateMutability":"nonpayable"},{"type":"function","name":"release","inputs":[{"name":"id","type":"uint256","internalType":"uint256"}],"outputs":[],"stateMutability":"nonpayable"},{"type":"function","name":"resolve","inputs":[{"name":"id","type":"uint256","internalType":"uint256"},{"name":"favouredBuyer","type":"bool","internalType":"bool"}],"outputs":[],"stateMutability":"nonpayable"},{"type":"event","name":"Deposited","inputs":[{"name":"id","type":"uint256","indexed":true,"internalType":"uint256"},{"name":"buyer","type":"address","indexed":true,"internalType":"address"},{"name":"amount","type":"uint256","indexed":false,"internalType":"uint256"}],"anonymous":false},{"type":"event","name":"DisputeRaised","inputs":[{"name":"id","type":"uint256","indexed":true,"internalType":"uint256"},{"name":"raisedBy","type":"address","indexed":true,"internalType":"address"}],"anonymous":false},{"type":"event","name":"DisputeResolved","inputs":[{"name":"id","type":"uint256","indexed":true,"internalType":"uint256"},{"name":"arbitrator","type":"address","indexed":true,"internalType":"address"},{"name":"favouredBuyer","type":"bool","indexed":false,"internalType":"bool"}],"anonymous":false},{"type":"event","name":"EscrowCreated","inputs":[{"name":"id","type":"uint256","indexed":true,"internalType":"uint256"},{"name":"buyer","type":"address","indexed":false,"internalType":"address"},{"name":"seller","type":"address","indexed":false,"internalType":"address"},{"name":"arbitrator","type":"address","indexed":false,"internalType":"address"},{"name":"amount","type":"uint256","indexed":false,"internalType":"uint256"},{"name":"deadline","type":"uint256","indexed":false,"internalType":"uint256"}],"anonymous":false},{"type":"event","name":"Refunded","inputs":[{"name":"id","type":"uint256","indexed":true,"internalType":"uint256"},{"name":"buyer","type":"address","indexed":true,"internalType":"address"},{"name":"amount","type":"uint256","indexed":false,"internalType":"uint256"}],"anonymous":false},{"type":"event","name":"Released","inputs":[{"name":"id","type":"uint256","indexed":true,"internalType":"uint256"},{"name":"seller","type":"address","indexed":true,"internalType":"address"},{"name":"amount","type":"uint256","indexed":false,"internalType":"uint256"}],"anonymous":false}],"bytecode":{"object":"0x6080604052348015600e575f5ffd5b50611cf18061001c5f395ff3fe60806040526004361061006f575f3560e01c806352a34b051161004d57806352a34b0514610105578063675ac67a1461012d57806386d6282c14610157578063c36176501461017f5761006f565b8063012f52ee14610073578063278ecde1146100b557806337bdc99b146100dd575b5f5ffd5b34801561007e575f5ffd5b50610099600480360381019061009491906112ef565b61019b565b6040516100ac97969594939291906113db565b60405180910390f35b3480156100c0575f5ffd5b506100db60048036038101906100d691906112ef565b610242565b005b3480156100e8575f5ffd5b5061010360048036038101906100fe91906112ef565b61058b565b005b348015610110575f5ffd5b5061012b6004803603810190610126919061147d565b61087e565b005b348015610138575f5ffd5b50610141610c96565b60405161014e91906114bb565b60405180910390f35b348015610162575f5ffd5b5061017d600480360381019061017891906112ef565b610c9b565b005b610199600480360381019061019491906114fe565b610eb5565b005b6001602052805f5260405f205f91509050805f015490806001015f9054906101000a900473ffffffffffffffffffffffffffffffffffffffff1690806002015f9054906101000a900473ffffffffffffffffffffffffffffffffffffffff1690806003015f9054906101000a900473ffffffffffffffffffffffffffffffffffffffff1690806004015490806005015490806006015f9054906101000a900460ff16905087565b8060015f8281526020019081526020015f206001015f9054906101000a900473ffffffffffffffffffffffffffffffffffffffff1673ffffffffffffffffffffffffffffffffffffffff163373ffffffffffffffffffffffffffffffffffffffff16146102e4576040517f08c379a00000000000000000000000000000000000000000000000000000000081526004016102db906115a8565b60405180910390fd5b8160018060058111156102fa576102f9611368565b5b60015f8481526020019081526020015f206006015f9054906101000a900460ff16600581111561032d5761032c611368565b5b1461036d576040517f08c379a000000000000000000000000000000000000000000000000000000000815260040161036490611610565b60405180910390fd5b60015f8581526020019081526020015f206005015442116103c3576040517f08c379a00000000000000000000000000000000000000000000000000000000081526004016103ba90611678565b60405180910390fd5b600460015f8681526020019081526020015f206006015f6101000a81548160ff021916908360058111156103fa576103f9611368565b5b02179055505f60015f8681526020019081526020015f206001015f9054906101000a900473ffffffffffffffffffffffffffffffffffffffff1673ffffffffffffffffffffffffffffffffffffffff1660015f8781526020019081526020015f206004015460405161046b906116c3565b5f6040518083038185875af1925050503d805f81146104a5576040519150601f19603f3d011682016040523d82523d5f602084013e6104aa565b606091505b50509050806104ee576040517f08c379a00000000000000000000000000000000000000000000000000000000081526004016104e590611721565b60405180910390fd5b60015f8681526020019081526020015f206001015f9054906101000a900473ffffffffffffffffffffffffffffffffffffffff1673ffffffffffffffffffffffffffffffffffffffff16857f7ca5472b7ea78c2c0141c5a12ee6d170cf4ce8ed06be3d22c8252ddfc7a6a2c460015f8981526020019081526020015f206004015460405161057c91906114bb565b60405180910390a35050505050565b8060015f8281526020019081526020015f206001015f9054906101000a900473ffffffffffffffffffffffffffffffffffffffff1673ffffffffffffffffffffffffffffffffffffffff163373ffffffffffffffffffffffffffffffffffffffff161461062d576040517f08c379a0000000000000000000000000000000000000000000000000000000008152600401610624906115a8565b60405180910390fd5b81600180600581111561064357610642611368565b5b60015f8481526020019081526020015f206006015f9054906101000a900460ff16600581111561067657610675611368565b5b146106b6576040517f08c379a00000000000000000000000000000000000000000000000000000000081526004016106ad90611610565b60405180910390fd5b600360015f8681526020019081526020015f206006015f6101000a81548160ff021916908360058111156106ed576106ec611368565b5b02179055505f60015f8681526020019081526020015f206002015f9054906101000a900473ffffffffffffffffffffffffffffffffffffffff1673ffffffffffffffffffffffffffffffffffffffff1660015f8781526020019081526020015f206004015460405161075e906116c3565b5f6040518083038185875af1925050503d805f8114610798576040519150601f19603f3d011682016040523d82523d5f602084013e61079d565b606091505b50509050806107e1576040517f08c379a00000000000000000000000000000000000000000000000000000000081526004016107d890611789565b60405180910390fd5b60015f8681526020019081526020015f206002015f9054906101000a900473ffffffffffffffffffffffffffffffffffffffff1673ffffffffffffffffffffffffffffffffffffffff16857f3bfce8de0db7450cc169b94323c210e69a36c6a4a58c9f5d96bec4973adce39260015f8981526020019081526020015f206004015460405161086f91906114bb565b60405180910390a35050505050565b8160015f8281526020019081526020015f206003015f9054906101000a900473ffffffffffffffffffffffffffffffffffffffff1673ffffffffffffffffffffffffffffffffffffffff163373ffffffffffffffffffffffffffffffffffffffff1614610920576040517f08c379a0000000000000000000000000000000000000000000000000000000008152600401610917906117f1565b60405180910390fd5b82600280600581111561093657610935611368565b5b60015f8481526020019081526020015f206006015f9054906101000a900460ff16600581111561096957610968611368565b5b146109a9576040517f08c379a00000000000000000000000000000000000000000000000000000000081526004016109a090611610565b60405180910390fd5b8315610ae057600460015f8781526020019081526020015f206006015f6101000a81548160ff021916908360058111156109e6576109e5611368565b5b02179055505f60015f8781526020019081526020015f206001015f9054906101000a900473ffffffffffffffffffffffffffffffffffffffff1673ffffffffffffffffffffffffffffffffffffffff1660015f8881526020019081526020015f2060040154604051610a57906116c3565b5f6040518083038185875af1925050503d805f8114610a91576040519150601f19603f3d011682016040523d82523d5f602084013e610a96565b606091505b5050905080610ada576040517f08c379a0000000000000000000000000000000000000000000000000000000008152600401610ad190611859565b60405180910390fd5b50610c0d565b600560015f8781526020019081526020015f206006015f6101000a81548160ff02191690836005811115610b1757610b16611368565b5b02179055505f60015f8781526020019081526020015f206002015f9054906101000a900473ffffffffffffffffffffffffffffffffffffffff1673ffffffffffffffffffffffffffffffffffffffff1660015f8881526020019081526020015f2060040154604051610b88906116c3565b5f6040518083038185875af1925050503d805f8114610bc2576040519150601f19603f3d011682016040523d82523d5f602084013e610bc7565b606091505b5050905080610c0b576040517f08c379a0000000000000000000000000000000000000000000000000000000008152600401610c02906118c1565b60405180910390fd5b505b60015f8681526020019081526020015f206003015f9054906101000a900473ffffffffffffffffffffffffffffffffffffffff1673ffffffffffffffffffffffffffffffffffffffff16857f8fdd4548a8481406b6e29c0d6f25e27cd72502f79f4adf409468502e7920dabc86604051610c8791906118ee565b60405180910390a35050505050565b5f5481565b8060015f8281526020019081526020015f206001015f9054906101000a900473ffffffffffffffffffffffffffffffffffffffff1673ffffffffffffffffffffffffffffffffffffffff163373ffffffffffffffffffffffffffffffffffffffff161480610d67575060015f8281526020019081526020015f206002015f9054906101000a900473ffffffffffffffffffffffffffffffffffffffff1673ffffffffffffffffffffffffffffffffffffffff163373ffffffffffffffffffffffffffffffffffffffff16145b610da6576040517f08c379a0000000000000000000000000000000000000000000000000000000008152600401610d9d90611951565b60405180910390fd5b816001806005811115610dbc57610dbb611368565b5b60015f8481526020019081526020015f206006015f9054906101000a900460ff166005811115610def57610dee611368565b5b14610e2f576040517f08c379a0000000000000000000000000000000000000000000000000000000008152600401610e2690611610565b60405180910390fd5b600260015f8681526020019081526020015f206006015f6101000a81548160ff02191690836005811115610e6657610e65611368565b5b02179055503373ffffffffffffffffffffffffffffffffffffffff16847f84a477df8a28a4276ca6dee4458a06c3015f30c477d9c949ede4e13ff8a552b460405160405180910390a350505050565b5f3411610ef7576040517f08c379a0000000000000000000000000000000000000000000000000000000008152600401610eee906119b9565b60405180910390fd5b5f73ffffffffffffffffffffffffffffffffffffffff168373ffffffffffffffffffffffffffffffffffffffff1603610f65576040517f08c379a0000000000000000000000000000000000000000000000000000000008152600401610f5c90611a21565b60405180910390fd5b3373ffffffffffffffffffffffffffffffffffffffff168373ffffffffffffffffffffffffffffffffffffffff1603610fd3576040517f08c379a0000000000000000000000000000000000000000000000000000000008152600401610fca90611aaf565b60405180910390fd5b5f8111611015576040517f08c379a000000000000000000000000000000000000000000000000000000000815260040161100c90611b17565b60405180910390fd5b5f73ffffffffffffffffffffffffffffffffffffffff168273ffffffffffffffffffffffffffffffffffffffff1603611083576040517f08c379a000000000000000000000000000000000000000000000000000000000815260040161107a90611ba5565b60405180910390fd5b5f5f5f81548092919061109590611bf0565b9190505590506040518060e001604052808281526020013373ffffffffffffffffffffffffffffffffffffffff1681526020018573ffffffffffffffffffffffffffffffffffffffff1681526020018473ffffffffffffffffffffffffffffffffffffffff16815260200134815260200183426111129190611c37565b81526020015f600581111561112a57611129611368565b5b81525060015f8381526020019081526020015f205f820151815f01556020820151816001015f6101000a81548173ffffffffffffffffffffffffffffffffffffffff021916908373ffffffffffffffffffffffffffffffffffffffff1602179055506040820151816002015f6101000a81548173ffffffffffffffffffffffffffffffffffffffff021916908373ffffffffffffffffffffffffffffffffffffffff1602179055506060820151816003015f6101000a81548173ffffffffffffffffffffffffffffffffffffffff021916908373ffffffffffffffffffffffffffffffffffffffff1602179055506080820151816004015560a0820151816005015560c0820151816006015f6101000a81548160ff0219169083600581111561125657611255611368565b5b0217905550905050807fd91ffdf72f8c3d62bbe8989808f4896563a1455682e9170c1384b1f90536792e3386863460015f8881526020019081526020015f20600501546040516112aa959493929190611c6a565b60405180910390a250505050565b5f5ffd5b5f819050919050565b6112ce816112bc565b81146112d8575f5ffd5b50565b5f813590506112e9816112c5565b92915050565b5f60208284031215611304576113036112b8565b5b5f611311848285016112db565b91505092915050565b611323816112bc565b82525050565b5f73ffffffffffffffffffffffffffffffffffffffff82169050919050565b5f61135282611329565b9050919050565b61136281611348565b82525050565b7f4e487b71000000000000000000000000000000000000000000000000000000005f52602160045260245ffd5b600681106113a6576113a5611368565b5b50565b5f8190506113b682611395565b919050565b5f6113c5826113a9565b9050919050565b6113d5816113bb565b82525050565b5f60e0820190506113ee5f83018a61131a565b6113fb6020830189611359565b6114086040830188611359565b6114156060830187611359565b611422608083018661131a565b61142f60a083018561131a565b61143c60c08301846113cc565b98975050505050505050565b5f8115159050919050565b61145c81611448565b8114611466575f5ffd5b50565b5f8135905061147781611453565b92915050565b5f5f60408385031215611493576114926112b8565b5b5f6114a0858286016112db565b92505060206114b185828601611469565b9150509250929050565b5f6020820190506114ce5f83018461131a565b92915050565b6114dd81611348565b81146114e7575f5ffd5b50565b5f813590506114f8816114d4565b92915050565b5f5f5f60608486031215611515576115146112b8565b5b5f611522868287016114ea565b9350506020611533868287016114ea565b9250506040611544868287016112db565b9150509250925092565b5f82825260208201905092915050565b7f6e6f7420746865206275796572000000000000000000000000000000000000005f82015250565b5f611592600d8361154e565b915061159d8261155e565b602082019050919050565b5f6020820190508181035f8301526115bf81611586565b9050919050565b7f696e76616c6964207374617465000000000000000000000000000000000000005f82015250565b5f6115fa600d8361154e565b9150611605826115c6565b602082019050919050565b5f6020820190508181035f830152611627816115ee565b9050919050565b7f646561646c696e6520686173206e6f74207061737365640000000000000000005f82015250565b5f61166260178361154e565b915061166d8261162e565b602082019050919050565b5f6020820190508181035f83015261168f81611656565b9050919050565b5f81905092915050565b50565b5f6116ae5f83611696565b91506116b9826116a0565b5f82019050919050565b5f6116cd826116a3565b9150819050919050565b7f726566756e64206661696c6564000000000000000000000000000000000000005f82015250565b5f61170b600d8361154e565b9150611716826116d7565b602082019050919050565b5f6020820190508181035f830152611738816116ff565b9050919050565b7f7472616e73666572206661696c656400000000000000000000000000000000005f82015250565b5f611773600f8361154e565b915061177e8261173f565b602082019050919050565b5f6020820190508181035f8301526117a081611767565b9050919050565b7f6e6f74207468652061726269747261746f7200000000000000000000000000005f82015250565b5f6117db60128361154e565b91506117e6826117a7565b602082019050919050565b5f6020820190508181035f830152611808816117cf565b9050919050565b7f5265696e627572736d656e74206661696c6564000000000000000000000000005f82015250565b5f61184360138361154e565b915061184e8261180f565b602082019050919050565b5f6020820190508181035f83015261187081611837565b9050919050565b7f5265736f6c7574696f6e206661696c65640000000000000000000000000000005f82015250565b5f6118ab60118361154e565b91506118b682611877565b602082019050919050565b5f6020820190508181035f8301526118d88161189f565b9050919050565b6118e881611448565b82525050565b5f6020820190506119015f8301846118df565b92915050565b7f6e6f74206275796572206f722073656c6c6572000000000000000000000000005f82015250565b5f61193b60138361154e565b915061194682611907565b602082019050919050565b5f6020820190508181035f8301526119688161192f565b9050919050565b7f616d6f756e74206d7573742062652067726561746572207468616e20300000005f82015250565b5f6119a3601d8361154e565b91506119ae8261196f565b602082019050919050565b5f6020820190508181035f8301526119d081611997565b9050919050565b7f696e76616c6964206164647265737300000000000000000000000000000000005f82015250565b5f611a0b600f8361154e565b9150611a16826119d7565b602082019050919050565b5f6020820190508181035f830152611a38816119ff565b9050919050565b7f73656c6c657220616e642062757965722063616e6e6f742062652074686520735f8201527f616d650000000000000000000000000000000000000000000000000000000000602082015250565b5f611a9960238361154e565b9150611aa482611a3f565b604082019050919050565b5f6020820190508181035f830152611ac681611a8d565b9050919050565b7f646561646c696e65206d7573742062652067726561746572207468616e2030005f82015250565b5f611b01601f8361154e565b9150611b0c82611acd565b602082019050919050565b5f6020820190508181035f830152611b2e81611af5565b9050919050565b7f61726269747261746f722063616e6e6f7420626520746865207a65726f2061645f8201527f6472657373000000000000000000000000000000000000000000000000000000602082015250565b5f611b8f60258361154e565b9150611b9a82611b35565b604082019050919050565b5f6020820190508181035f830152611bbc81611b83565b9050919050565b7f4e487b71000000000000000000000000000000000000000000000000000000005f52601160045260245ffd5b5f611bfa826112bc565b91507fffffffffffffffffffffffffffffffffffffffffffffffffffffffffffffffff8203611c2c57611c2b611bc3565b5b600182019050919050565b5f611c41826112bc565b9150611c4c836112bc565b9250828201905080821115611c6457611c63611bc3565b5b92915050565b5f60a082019050611c7d5f830188611359565b611c8a6020830187611359565b611c976040830186611359565b611ca4606083018561131a565b611cb1608083018461131a565b969550505050505056fea2646970667358221220f69fcd5c7c6828728b8462f4b2c12907545efcd932b725dcc364e679e5fc561f64736f6c63430008210033","linkReferences":{}},"methodIdentifiers":{"createEscrow(address,address,uint256)":"c3617650","dispute(uint256)":"86d6282c","escrowCount()":"675ac67a","escrows(uint256)":"012f52ee","refund(uint256)":"278ecde1","release(uint256)":"37bdc99b","resolve(uint256,bool)":"52a34b05"},"id":19}